{
  "contracts/MoveCallBridge.sol": {
    "MoveCallBridge": {
      "abi": [
        {
          "inputs": [],
          "stateMutability": "nonpayable",
          "type": "constructor"
        },
        {
          "inputs": [
            {
              "internalType": "address",
              "name": "owner",
              "type": "address"
            }
          ],
          "name": "OwnableInvalidOwner",
          "type": "error"
        },
        {
          "inputs": [
            {
              "internalType": "address",
              "name": "account",
              "type": "address"
            }
          ],
          "name": "OwnableUnauthorizedAccount",
          "type": "error"
        },
        {
          "anonymous": false,
          "inputs": [
            {
              "indexed": true,
              "internalType": "bytes32",
              "name": "uid",
              "type": "bytes32"
            },
            {
              "indexed": false,
              "internalType": "uint64",
              "name": "toChain",
              "type": "uint64"
            },
            {
              "indexed": false,
              "internalType": "address",
              "name": "from",
              "type": "address"
            },
            {
              "indexed": false,
              "internalType": "bytes32",
              "name": "to",
              "type": "bytes32"
            },
            {
              "indexed": false,
              "internalType": "bytes",
              "name": "data",
              "type": "bytes"
            }
          ],
          "name": "MessageSent",
          "type": "event"
        },
        {
          "anonymous": false,
          "inputs": [
            {
              "indexed": true,
              "internalType": "address",
              "name": "previousOwner",
              "type": "address"
            },
            {
              "indexed": true,
              "internalType": "address",
              "name": "newOwner",
              "type": "address"
            }
          ],
          "name": "OwnershipTransferred",
          "type": "event"
        },
        {
          "anonymous": false,
          "inputs": [
            {
              "indexed": true,
              "internalType": "bytes32",
              "name": "uid",
              "type": "bytes32"
            },
            {
              "indexed": false,
              "internalType": "string",
              "name": "coinType",
              "type": "string"
            },
            {
              "indexed": false,
              "internalType": "uint256",
              "name": "decimals",
              "type": "uint256"
            },
            {
              "indexed": false,
              "internalType": "uint256",
              "name": "amount",
              "type": "uint256"
            },
            {
              "indexed": false,
              "internalType": "bytes32",
              "name": "receiver",
              "type": "bytes32"
            }
          ],
          "name": "TokenLocked",
          "type": "event"
        },
        {
          "inputs": [],
          "name": "DENOMINATOR",
          "outputs": [
            {
              "internalType": "uint256",
              "name": "",
              "type": "uint256"
            }
          ],
          "stateMutability": "view",
          "type": "function"
        },
        {
          "inputs": [],
          "name": "ETH",
          "outputs": [
            {
              "internalType": "address",
              "name": "",
              "type": "address"
            }
          ],
          "stateMutability": "view",
          "type": "function"
        },
        {
          "inputs": [],
          "name": "ETH_DECIMALS",
          "outputs": [
            {
              "internalType": "uint8",
              "name": "",
              "type": "uint8"
            }
          ],
          "stateMutability": "view",
          "type": "function"
        },
        {
          "inputs": [],
          "name": "FEES",
          "outputs": [
            {
              "internalType": "uint256",
              "name": "",
              "type": "uint256"
            }
          ],
          "stateMutability": "view",
          "type": "function"
        },
        {
          "inputs": [
            {
              "internalType": "address",
              "name": "token",
              "type": "address"
            }
          ],
          "name": "getCoinType",
          "outputs": [
            {
              "internalType": "string",
              "name": "",
              "type": "string"
            }
          ],
          "stateMutability": "view",
          "type": "function"
        },
        {
          "inputs": [
            {
              "internalType": "address",
              "name": "token",
              "type": "address"
            },
            {
              "internalType": "uint256",
              "name": "amount",
              "type": "uint256"
            },
            {
              "internalType": "bytes32",
              "name": "receiver",
              "type": "bytes32"
            }
          ],
          "name": "lockAndMint",
          "outputs": [],
          "stateMutability": "nonpayable",
          "type": "function"
        },
        {
          "inputs": [
            {
              "internalType": "bytes32",
              "name": "receiver",
              "type": "bytes32"
            }
          ],
          "name": "lockAndMintETH",
          "outputs": [],
          "stateMutability": "payable",
          "type": "function"
        },
        {
          "inputs": [],
          "name": "owner",
          "outputs": [
            {
              "internalType": "address",
              "name": "",
              "type": "address"
            }
          ],
          "stateMutability": "view",
          "type": "function"
        },
        {
          "inputs": [],
          "name": "renounceOwnership",
          "outputs": [],
          "stateMutability": "nonpayable",
          "type": "function"
        },
        {
          "inputs": [
            {
              "internalType": "uint64",
              "name": "toChain",
              "type": "uint64"
            },
            {
              "internalType": "bytes32",
              "name": "to",
              "type": "bytes32"
            },
            {
              "internalType": "bytes",
              "name": "data",
              "type": "bytes"
            }
          ],
          "name": "sendMessage",
          "outputs": [],
          "stateMutability": "payable",
          "type": "function"
        },
        {
          "inputs": [
            {
              "internalType": "address",
              "name": "token",
              "type": "address"
            },
            {
              "internalType": "string",
              "name": "coinType",
              "type": "string"
            }
          ],
          "name": "setCoinType",
          "outputs": [],
          "stateMutability": "nonpayable",
          "type": "function"
        },
        {
          "inputs": [
            {
              "internalType": "address",
              "name": "newOwner",
              "type": "address"
            }
          ],
          "name": "transferOwnership",
          "outputs": [],
          "stateMutability": "nonpayable",
          "type": "function"
        }
      ],
      "evm": {
        "bytecode": {
          "linkReferences": {},
          "object": "608080604052346075573315605f5760008054336001600160a01b0319821681178355916001600160a01b03909116907f8be0079c531659141344cd1fd0a4f28419497f9722a3daafe3b4186f6b6457e09080a3610b7d908161007b8239f35b631e4fbdf760e01b600052600060045260246000fd5b600080fdfe6080604052600436101561001257600080fd5b60003560e01c80634de4eafc146108825780635bd33bba146107a357806367b9af1f146104e2578063715018a61461047c5780638322fff21461046057806386a66c3c146102bc5780638b7b23ee1461029f5780638da5cb5b14610278578063918f86741461025a57806392cd1ff21461023e578063b37e4e35146101545763f2fde38b146100a057600080fd5b3461014f57602036600319011261014f576001600160a01b036100c1610a0b565b6100c9610b05565b168015610120576001600160a01b036000548273ffffffffffffffffffffffffffffffffffffffff19821617600055167f8be0079c531659141344cd1fd0a4f28419497f9722a3daafe3b4186f6b6457e0600080a3005b7f1e4fbdf700000000000000000000000000000000000000000000000000000000600052600060045260246000fd5b600080fd5b3461014f57602036600319011261014f576001600160a01b03610175610a0b565b16600052600260205260406000206040519060009080549061019682610acb565b808552916001811690811561021757506001146101d6575b6101d2846101be81860382610a21565b604051918291602083526020830190610a8a565b0390f35b600090815260208120939250905b8082106101fd575090915081016020016101be826101ae565b9192600181602092548385880101520191019092916101e4565b60ff191660208087019190915292151560051b850190920192506101be91508390506101ae565b3461014f57600036600319011261014f57602060405160128152f35b3461014f57600036600319011261014f576020604051620f42408152f35b3461014f57600036600319011261014f5760206001600160a01b0360005416604051908152f35b3461014f57600036600319011261014f5760206040516127108152f35b602036600319011261014f57600435600080526002602052604060002090604051918260008254926102ed84610acb565b808452936001811690811561043e57506001146103f7575b5061031292500383610a21565b60015491604051602081019084825260a0604082015261035a8161033960c0820186610a8a565b600060608301523460808301528660a083015203601f198101835282610a21565b51902091612710340234810461271014341517156103e157620f424090043403913483116103e1577fe80829958c6bfcf6975b892d75fe361e37dac7a1013e1bcb5bc558498806da8c926103bc92604051938493608085526080850190610a8a565b9160126020850152604084015260608301520390a2600181018091116103e157600155005b634e487b7160e01b600052601160045260246000fd5b90506000929192526020600020906000915b8183106104225750509060206103129282010185610305565b6020919350806001915483858901015201910190918492610409565b90506020925061031294915060ff191682840152151560051b82010185610305565b3461014f57600036600319011261014f57602060405160008152f35b3461014f57600036600319011261014f57610495610b05565b60006001600160a01b03815473ffffffffffffffffffffffffffffffffffffffff1981168355167f8be0079c531659141344cd1fd0a4f28419497f9722a3daafe3b4186f6b6457e08280a3005b3461014f57606036600319011261014f576104fb610a0b565b6024356001600160a01b036044359216916040517f23b872dd0000000000000000000000000000000000000000000000000000000081523360048201523060248201528260448201526020816064816000885af1801561075f5761076b575b50604051917f313ce567000000000000000000000000000000000000000000000000000000008352602083600481875afa92831561075f57600093610718575b508360005260026020526040600020604051908160008254926105bc84610acb565b80845293600181169081156106f657506001146106af575b506105e192500382610a21565b6001549460405161062881602081019389855260a0604083015261060860c0830187610a8a565b9060608301528660808301528760a083015203601f198101835282610a21565b51902093612710830283810461271014841517156103e157620f4240900483039283116103e1577fe80829958c6bfcf6975b892d75fe361e37dac7a1013e1bcb5bc558498806da8c9361068b9360ff604051958695608087526080870190610a8a565b93166020850152604084015260608301520390a2600181018091116103e157600155005b90506000929192526020600020906000915b8183106106da5750509060206105e192820101886105d4565b60209193508060019154838588010152019101909183926106c1565b9050602092506105e194915060ff191682840152151560051b820101886105d4565b6020939193813d602011610757575b8161073460209383610a21565b8101031261075357519060ff821682036107505750918461059a565b80fd5b5080fd5b3d9150610727565b6040513d6000823e3d90fd5b6020813d60201161079b575b8161078460209383610a21565b8101031261014f5751801515811461055a57600080fd5b3d9150610777565b606036600319011261014f5760043567ffffffffffffffff811680910361014f5760243560443567ffffffffffffffff811161014f573660238201121561014f576108197f6515a39e714c4ba5f137d79f71a7ecba823c789a6de7d6905640db2e5fc1e9f2913690602481600401359101610a43565b916001549361086f604051602081019087825283604082015284606082015260608152610847608082610a21565b5190209460405193849384523360208501526040840152608060608401526080830190610a8a565b0390a2600181018091116103e157600155005b3461014f57604036600319011261014f5761089b610a0b565b60243567ffffffffffffffff811161014f573660238201121561014f576108d46001600160a01b03913690602481600401359101610a43565b916108dd610b05565b1660005260026020526040600020815167ffffffffffffffff81116109f5576109068254610acb565b601f81116109ad575b50602092601f821160011461094d5792819293600092610942575b5050600019600383901b1c191660019190911b179055005b01519050838061092a565b601f1982169383600052806000209160005b868110610995575083600195961061097c575b505050811b019055005b015160001960f88460031b161c19169055838080610972565b9192602060018192868501518155019401920161095f565b826000526020600020601f830160051c810191602084106109eb575b601f0160051c01905b8181106109df575061090f565b600081556001016109d2565b90915081906109c9565b634e487b7160e01b600052604160045260246000fd5b600435906001600160a01b038216820361014f57565b90601f8019910116810190811067ffffffffffffffff8211176109f557604052565b92919267ffffffffffffffff82116109f55760405191610a6d601f8201601f191660200184610a21565b82948184528183011161014f578281602093846000960137010152565b919082519283825260005b848110610ab6575050826000602080949584010152601f8019910116010190565b80602080928401015182828601015201610a95565b90600182811c92168015610afb575b6020831014610ae557565b634e487b7160e01b600052602260045260246000fd5b91607f1691610ada565b6001600160a01b03600054163303610b1957565b7f118cdaa7000000000000000000000000000000000000000000000000000000006000523360045260246000fdfea26469706673582212209238240933e5e8f45fa1061d456260ca6a0921c0babbc988c28624612c8b8fa264736f6c634300081c0033",
          "opcodes": "PUSH1 0x80 DUP1 PUSH1 0x40 MSTORE CALLVALUE PUSH1 0x75 JUMPI CALLER ISZERO PUSH1 0x5F JUMPI PUSH1 0x0 DUP1 SLOAD CALLER PUSH1 0x1 PUSH1 0x1 PUSH1 0xA0 SHL SUB NOT DUP3 AND DUP2 OR DUP4 SSTORE SWAP2 PUSH1 0x1 PUSH1 0x1 PUSH1 0xA0 SHL SUB SWAP1 SWAP2 AND SWAP1 PUSH32 0x8BE0079C531659141344CD1FD0A4F28419497F9722A3DAAFE3B4186F6B6457E0 SWAP1 DUP1 LOG3 PUSH2 0xB7D SWAP1 DUP2 PUSH2 0x7B DUP3 CODECOPY RETURN JUMPDEST PUSH4 0x1E4FBDF7 PUSH1 0xE0 SHL PUSH1 0x0 MSTORE PUSH1 0x0 PUSH1 0x4 MSTORE PUSH1 0x24 PUSH1 0x0 REVERT JUMPDEST PUSH1 0x0 DUP1 REVERT INVALID PUSH1 0x80 PUSH1 0x40 MSTORE PUSH1 0x4 CALLDATASIZE LT ISZERO PUSH2 0x12 JUMPI PUSH1 0x0 DUP1 REVERT JUMPDEST PUSH1 0x0 CALLDATALOAD PUSH1 0xE0 SHR DUP1 PUSH4 0x4DE4EAFC EQ PUSH2 0x882 JUMPI DUP1 PUSH4 0x5BD33BBA EQ PUSH2 0x7A3 JUMPI DUP1 PUSH4 0x67B9AF1F EQ PUSH2 0x4E2 JUMPI DUP1 PUSH4 0x715018A6 EQ PUSH2 0x47C JUMPI DUP1 PUSH4 0x8322FFF2 EQ PUSH2 0x460 JUMPI DUP1 PUSH4 0x86A66C3C EQ PUSH2 0x2BC JUMPI DUP1 PUSH4 0x8B7B23EE EQ PUSH2 0x29F JUMPI DUP1 PUSH4 0x8DA5CB5B EQ PUSH2 0x278 JUMPI DUP1 PUSH4 0x918F8674 EQ PUSH2 0x25A JUMPI DUP1 PUSH4 0x92CD1FF2 EQ PUSH2 0x23E JUMPI DUP1 PUSH4 0xB37E4E35 EQ PUSH2 0x154 JUMPI PUSH4 0xF2FDE38B EQ PUSH2 0xA0 JUMPI PUSH1 0x0 DUP1 REVERT JUMPDEST CALLVALUE PUSH2 0x14F JUMPI PUSH1 0x20 CALLDATASIZE PUSH1 0x3 NOT ADD SLT PUSH2 0x14F JUMPI PUSH1 0x1 PUSH1 0x1 PUSH1 0xA0 SHL SUB PUSH2 0xC1 PUSH2 0xA0B JUMP JUMPDEST PUSH2 0xC9 PUSH2 0xB05 JUMP JUMPDEST AND DUP1 ISZERO PUSH2 0x120 JUMPI PUSH1 0x1 PUSH1 0x1 PUSH1 0xA0 SHL SUB PUSH1 0x0 SLOAD DUP3 PUSH20 0xFFFFFFFFFFFFFFFFFFFFFFFFFFFFFFFFFFFFFFFF NOT DUP3 AND OR PUSH1 0x0 SSTORE AND PUSH32 0x8BE0079C531659141344CD1FD0A4F28419497F9722A3DAAFE3B4186F6B6457E0 PUSH1 0x0 DUP1 LOG3 STOP JUMPDEST PUSH32 0x1E4FBDF700000000000000000000000000000000000000000000000000000000 PUSH1 0x0 MSTORE PUSH1 0x0 PUSH1 0x4 MSTORE PUSH1 0x24 PUSH1 0x0 REVERT JUMPDEST PUSH1 0x0 DUP1 REVERT JUMPDEST CALLVALUE PUSH2 0x14F JUMPI PUSH1 0x20 CALLDATASIZE PUSH1 0x3 NOT ADD SLT PUSH2 0x14F JUMPI PUSH1 0x1 PUSH1 0x1 PUSH1 0xA0 SHL SUB PUSH2 0x175 PUSH2 0xA0B JUMP JUMPDEST AND PUSH1 0x0 MSTORE PUSH1 0x2 PUSH1 0x20 MSTORE PUSH1 0x40 PUSH1 0x0 KECCAK256 PUSH1 0x40 MLOAD SWAP1 PUSH1 0x0 SWAP1 DUP1 SLOAD SWAP1 PUSH2 0x196 DUP3 PUSH2 0xACB JUMP JUMPDEST DUP1 DUP6 MSTORE SWAP2 PUSH1 0x1 DUP2 AND SWAP1 DUP2 ISZERO PUSH2 0x217 JUMPI POP PUSH1 0x1 EQ PUSH2 0x1D6 JUMPI JUMPDEST PUSH2 0x1D2 DUP5 PUSH2 0x1BE DUP2 DUP7 SUB DUP3 PUSH2 0xA21 JUMP JUMPDEST PUSH1 0x40 MLOAD SWAP2 DUP3 SWAP2 PUSH1 0x20 DUP4 MSTORE PUSH1 0x20 DUP4 ADD SWAP1 PUSH2 0xA8A JUMP JUMPDEST SUB SWAP1 RETURN JUMPDEST PUSH1 0x0 SWAP1 DUP2 MSTORE PUSH1 0x20 DUP2 KECCAK256 SWAP4 SWAP3 POP SWAP1 JUMPDEST DUP1 DUP3 LT PUSH2 0x1FD JUMPI POP SWAP1 SWAP2 POP DUP2 ADD PUSH1 0x20 ADD PUSH2 0x1BE DUP3 PUSH2 0x1AE JUMP JUMPDEST SWAP2 SWAP3 PUSH1 0x1 DUP2 PUSH1 0x20 SWAP3 SLOAD DUP4 DUP6 DUP9 ADD ADD MSTORE ADD SWAP2 ADD SWAP1 SWAP3 SWAP2 PUSH2 0x1E4 JUMP JUMPDEST PUSH1 0xFF NOT AND PUSH1 0x20 DUP1 DUP8 ADD SWAP2 SWAP1 SWAP2 MSTORE SWAP3 ISZERO ISZERO PUSH1 0x5 SHL DUP6 ADD SWAP1 SWAP3 ADD SWAP3 POP PUSH2 0x1BE SWAP2 POP DUP4 SWAP1 POP PUSH2 0x1AE JUMP JUMPDEST CALLVALUE PUSH2 0x14F JUMPI PUSH1 0x0 CALLDATASIZE PUSH1 0x3 NOT ADD SLT PUSH2 0x14F JUMPI PUSH1 0x20 PUSH1 0x40 MLOAD PUSH1 0x12 DUP2 MSTORE RETURN JUMPDEST CALLVALUE PUSH2 0x14F JUMPI PUSH1 0x0 CALLDATASIZE PUSH1 0x3 NOT ADD SLT PUSH2 0x14F JUMPI PUSH1 0x20 PUSH1 0x40 MLOAD PUSH3 0xF4240 DUP2 MSTORE RETURN JUMPDEST CALLVALUE PUSH2 0x14F JUMPI PUSH1 0x0 CALLDATASIZE PUSH1 0x3 NOT ADD SLT PUSH2 0x14F JUMPI PUSH1 0x20 PUSH1 0x1 PUSH1 0x1 PUSH1 0xA0 SHL SUB PUSH1 0x0 SLOAD AND PUSH1 0x40 MLOAD SWAP1 DUP2 MSTORE RETURN JUMPDEST CALLVALUE PUSH2 0x14F JUMPI PUSH1 0x0 CALLDATASIZE PUSH1 0x3 NOT ADD SLT PUSH2 0x14F JUMPI PUSH1 0x20 PUSH1 0x40 MLOAD PUSH2 0x2710 DUP2 MSTORE RETURN JUMPDEST PUSH1 0x20 CALLDATASIZE PUSH1 0x3 NOT ADD SLT PUSH2 0x14F JUMPI PUSH1 0x4 CALLDATALOAD PUSH1 0x0 DUP1 MSTORE PUSH1 0x2 PUSH1 0x20 MSTORE PUSH1 0x40 PUSH1 0x0 KECCAK256 SWAP1 PUSH1 0x40 MLOAD SWAP2 DUP3 PUSH1 0x0 DUP3 SLOAD SWAP3 PUSH2 0x2ED DUP5 PUSH2 0xACB JUMP JUMPDEST DUP1 DUP5 MSTORE SWAP4 PUSH1 0x1 DUP2 AND SWAP1 DUP2 ISZERO PUSH2 0x43E JUMPI POP PUSH1 0x1 EQ PUSH2 0x3F7 JUMPI JUMPDEST POP PUSH2 0x312 SWAP3 POP SUB DUP4 PUSH2 0xA21 JUMP JUMPDEST PUSH1 0x1 SLOAD SWAP2 PUSH1 0x40 MLOAD PUSH1 0x20 DUP2 ADD SWAP1 DUP5 DUP3 MSTORE PUSH1 0xA0 PUSH1 0x40 DUP3 ADD MSTORE PUSH2 0x35A DUP2 PUSH2 0x339 PUSH1 0xC0 DUP3 ADD DUP7 PUSH2 0xA8A JUMP JUMPDEST PUSH1 0x0 PUSH1 0x60 DUP4 ADD MSTORE CALLVALUE PUSH1 0x80 DUP4 ADD MSTORE DUP7 PUSH1 0xA0 DUP4 ADD MSTORE SUB PUSH1 0x1F NOT DUP2 ADD DUP4 MSTORE DUP3 PUSH2 0xA21 JUMP JUMPDEST MLOAD SWAP1 KECCAK256 SWAP2 PUSH2 0x2710 CALLVALUE MUL CALLVALUE DUP2 DIV PUSH2 0x2710 EQ CALLVALUE ISZERO OR ISZERO PUSH2 0x3E1 JUMPI PUSH3 0xF4240 SWAP1 DIV CALLVALUE SUB SWAP2 CALLVALUE DUP4 GT PUSH2 0x3E1 JUMPI PUSH32 0xE80829958C6BFCF6975B892D75FE361E37DAC7A1013E1BCB5BC558498806DA8C SWAP3 PUSH2 0x3BC SWAP3 PUSH1 0x40 MLOAD SWAP4 DUP5 SWAP4 PUSH1 0x80 DUP6 MSTORE PUSH1 0x80 DUP6 ADD SWAP1 PUSH2 0xA8A JUMP JUMPDEST SWAP2 PUSH1 0x12 PUSH1 0x20 DUP6 ADD MSTORE PUSH1 0x40 DUP5 ADD MSTORE PUSH1 0x60 DUP4 ADD MSTORE SUB SWAP1 LOG2 PUSH1 0x1 DUP2 ADD DUP1 SWAP2 GT PUSH2 0x3E1 JUMPI PUSH1 0x1 SSTORE STOP JUMPDEST PUSH4 0x4E487B71 PUSH1 0xE0 SHL PUSH1 0x0 MSTORE PUSH1 0x11 PUSH1 0x4 MSTORE PUSH1 0x24 PUSH1 0x0 REVERT JUMPDEST SWAP1 POP PUSH1 0x0 SWAP3 SWAP2 SWAP3 MSTORE PUSH1 0x20 PUSH1 0x0 KECCAK256 SWAP1 PUSH1 0x0 SWAP2 JUMPDEST DUP2 DUP4 LT PUSH2 0x422 JUMPI POP POP SWAP1 PUSH1 0x20 PUSH2 0x312 SWAP3 DUP3 ADD ADD DUP6 PUSH2 0x305 JUMP JUMPDEST PUSH1 0x20 SWAP2 SWAP4 POP DUP1 PUSH1 0x1 SWAP2 SLOAD DUP4 DUP6 DUP10 ADD ADD MSTORE ADD SWAP2 ADD SWAP1 SWAP2 DUP5 SWAP3 PUSH2 0x409 JUMP JUMPDEST SWAP1 POP PUSH1 0x20 SWAP3 POP PUSH2 0x312 SWAP5 SWAP2 POP PUSH1 0xFF NOT AND DUP3 DUP5 ADD MSTORE ISZERO ISZERO PUSH1 0x5 SHL DUP3 ADD ADD DUP6 PUSH2 0x305 JUMP JUMPDEST CALLVALUE PUSH2 0x14F JUMPI PUSH1 0x0 CALLDATASIZE PUSH1 0x3 NOT ADD SLT PUSH2 0x14F JUMPI PUSH1 0x20 PUSH1 0x40 MLOAD PUSH1 0x0 DUP2 MSTORE RETURN JUMPDEST CALLVALUE PUSH2 0x14F JUMPI PUSH1 0x0 CALLDATASIZE PUSH1 0x3 NOT ADD SLT PUSH2 0x14F JUMPI PUSH2 0x495 PUSH2 0xB05 JUMP JUMPDEST PUSH1 0x0 PUSH1 0x1 PUSH1 0x1 PUSH1 0xA0 SHL SUB DUP2 SLOAD PUSH20 0xFFFFFFFFFFFFFFFFFFFFFFFFFFFFFFFFFFFFFFFF NOT DUP2 AND DUP4 SSTORE AND PUSH32 0x8BE0079C531659141344CD1FD0A4F28419497F9722A3DAAFE3B4186F6B6457E0 DUP3 DUP1 LOG3 STOP JUMPDEST CALLVALUE PUSH2 0x14F JUMPI PUSH1 0x60 CALLDATASIZE PUSH1 0x3 NOT ADD SLT PUSH2 0x14F JUMPI PUSH2 0x4FB PUSH2 0xA0B JUMP JUMPDEST PUSH1 0x24 CALLDATALOAD PUSH1 0x1 PUSH1 0x1 PUSH1 0xA0 SHL SUB PUSH1 0x44 CALLDATALOAD SWAP3 AND SWAP2 PUSH1 0x40 MLOAD PUSH32 0x23B872DD00000000000000000000000000000000000000000000000000000000 DUP2 MSTORE CALLER PUSH1 0x4 DUP3 ADD MSTORE ADDRESS PUSH1 0x24 DUP3 ADD MSTORE DUP3 PUSH1 0x44 DUP3 ADD MSTORE PUSH1 0x20 DUP2 PUSH1 0x64 DUP2 PUSH1 0x0 DUP9 GAS CALL DUP1 ISZERO PUSH2 0x75F JUMPI PUSH2 0x76B JUMPI JUMPDEST POP PUSH1 0x40 MLOAD SWAP2 PUSH32 0x313CE56700000000000000000000000000000000000000000000000000000000 DUP4 MSTORE PUSH1 0x20 DUP4 PUSH1 0x4 DUP2 DUP8 GAS STATICCALL SWAP3 DUP4 ISZERO PUSH2 0x75F JUMPI PUSH1 0x0 SWAP4 PUSH2 0x718 JUMPI JUMPDEST POP DUP4 PUSH1 0x0 MSTORE PUSH1 0x2 PUSH1 0x20 MSTORE PUSH1 0x40 PUSH1 0x0 KECCAK256 PUSH1 0x40 MLOAD SWAP1 DUP2 PUSH1 0x0 DUP3 SLOAD SWAP3 PUSH2 0x5BC DUP5 PUSH2 0xACB JUMP JUMPDEST DUP1 DUP5 MSTORE SWAP4 PUSH1 0x1 DUP2 AND SWAP1 DUP2 ISZERO PUSH2 0x6F6 JUMPI POP PUSH1 0x1 EQ PUSH2 0x6AF JUMPI JUMPDEST POP PUSH2 0x5E1 SWAP3 POP SUB DUP3 PUSH2 0xA21 JUMP JUMPDEST PUSH1 0x1 SLOAD SWAP5 PUSH1 0x40 MLOAD PUSH2 0x628 DUP2 PUSH1 0x20 DUP2 ADD SWAP4 DUP10 DUP6 MSTORE PUSH1 0xA0 PUSH1 0x40 DUP4 ADD MSTORE PUSH2 0x608 PUSH1 0xC0 DUP4 ADD DUP8 PUSH2 0xA8A JUMP JUMPDEST SWAP1 PUSH1 0x60 DUP4 ADD MSTORE DUP7 PUSH1 0x80 DUP4 ADD MSTORE DUP8 PUSH1 0xA0 DUP4 ADD MSTORE SUB PUSH1 0x1F NOT DUP2 ADD DUP4 MSTORE DUP3 PUSH2 0xA21 JUMP JUMPDEST MLOAD SWAP1 KECCAK256 SWAP4 PUSH2 0x2710 DUP4 MUL DUP4 DUP2 DIV PUSH2 0x2710 EQ DUP5 ISZERO OR ISZERO PUSH2 0x3E1 JUMPI PUSH3 0xF4240 SWAP1 DIV DUP4 SUB SWAP3 DUP4 GT PUSH2 0x3E1 JUMPI PUSH32 0xE80829958C6BFCF6975B892D75FE361E37DAC7A1013E1BCB5BC558498806DA8C SWAP4 PUSH2 0x68B SWAP4 PUSH1 0xFF PUSH1 0x40 MLOAD SWAP6 DUP7 SWAP6 PUSH1 0x80 DUP8 MSTORE PUSH1 0x80 DUP8 ADD SWAP1 PUSH2 0xA8A JUMP JUMPDEST SWAP4 AND PUSH1 0x20 DUP6 ADD MSTORE PUSH1 0x40 DUP5 ADD MSTORE PUSH1 0x60 DUP4 ADD MSTORE SUB SWAP1 LOG2 PUSH1 0x1 DUP2 ADD DUP1 SWAP2 GT PUSH2 0x3E1 JUMPI PUSH1 0x1 SSTORE STOP JUMPDEST SWAP1 POP PUSH1 0x0 SWAP3 SWAP2 SWAP3 MSTORE PUSH1 0x20 PUSH1 0x0 KECCAK256 SWAP1 PUSH1 0x0 SWAP2 JUMPDEST DUP2 DUP4 LT PUSH2 0x6DA JUMPI POP POP SWAP1 PUSH1 0x20 PUSH2 0x5E1 SWAP3 DUP3 ADD ADD DUP9 PUSH2 0x5D4 JUMP JUMPDEST PUSH1 0x20 SWAP2 SWAP4 POP DUP1 PUSH1 0x1 SWAP2 SLOAD DUP4 DUP6 DUP9 ADD ADD MSTORE ADD SWAP2 ADD SWAP1 SWAP2 DUP4 SWAP3 PUSH2 0x6C1 JUMP JUMPDEST SWAP1 POP PUSH1 0x20 SWAP3 POP PUSH2 0x5E1 SWAP5 SWAP2 POP PUSH1 0xFF NOT AND DUP3 DUP5 ADD MSTORE ISZERO ISZERO PUSH1 0x5 SHL DUP3 ADD ADD DUP9 PUSH2 0x5D4 JUMP JUMPDEST PUSH1 0x20 SWAP4 SWAP2 SWAP4 DUP2 RETURNDATASIZE PUSH1 0x20 GT PUSH2 0x757 JUMPI JUMPDEST DUP2 PUSH2 0x734 PUSH1 0x20 SWAP4 DUP4 PUSH2 0xA21 JUMP JUMPDEST DUP2 ADD SUB SLT PUSH2 0x753 JUMPI MLOAD SWAP1 PUSH1 0xFF DUP3 AND DUP3 SUB PUSH2 0x750 JUMPI POP SWAP2 DUP5 PUSH2 0x59A JUMP JUMPDEST DUP1 REVERT JUMPDEST POP DUP1 REVERT JUMPDEST RETURNDATASIZE SWAP2 POP PUSH2 0x727 JUMP JUMPDEST PUSH1 0x40 MLOAD RETURNDATASIZE PUSH1 0x0 DUP3 RETURNDATACOPY RETURNDATASIZE SWAP1 REVERT JUMPDEST PUSH1 0x20 DUP2 RETURNDATASIZE PUSH1 0x20 GT PUSH2 0x79B JUMPI JUMPDEST DUP2 PUSH2 0x784 PUSH1 0x20 SWAP4 DUP4 PUSH2 0xA21 JUMP JUMPDEST DUP2 ADD SUB SLT PUSH2 0x14F JUMPI MLOAD DUP1 ISZERO ISZERO DUP2 EQ PUSH2 0x55A JUMPI PUSH1 0x0 DUP1 REVERT JUMPDEST RETURNDATASIZE SWAP2 POP PUSH2 0x777 JUMP JUMPDEST PUSH1 0x60 CALLDATASIZE PUSH1 0x3 NOT ADD SLT PUSH2 0x14F JUMPI PUSH1 0x4 CALLDATALOAD PUSH8 0xFFFFFFFFFFFFFFFF DUP2 AND DUP1 SWAP2 SUB PUSH2 0x14F JUMPI PUSH1 0x24 CALLDATALOAD PUSH1 0x44 CALLDATALOAD PUSH8 0xFFFFFFFFFFFFFFFF DUP2 GT PUSH2 0x14F JUMPI CALLDATASIZE PUSH1 0x23 DUP3 ADD SLT ISZERO PUSH2 0x14F JUMPI PUSH2 0x819 PUSH32 0x6515A39E714C4BA5F137D79F71A7ECBA823C789A6DE7D6905640DB2E5FC1E9F2 SWAP2 CALLDATASIZE SWAP1 PUSH1 0x24 DUP2 PUSH1 0x4 ADD CALLDATALOAD SWAP2 ADD PUSH2 0xA43 JUMP JUMPDEST SWAP2 PUSH1 0x1 SLOAD SWAP4 PUSH2 0x86F PUSH1 0x40 MLOAD PUSH1 0x20 DUP2 ADD SWAP1 DUP8 DUP3 MSTORE DUP4 PUSH1 0x40 DUP3 ADD MSTORE DUP5 PUSH1 0x60 DUP3 ADD MSTORE PUSH1 0x60 DUP2 MSTORE PUSH2 0x847 PUSH1 0x80 DUP3 PUSH2 0xA21 JUMP JUMPDEST MLOAD SWAP1 KECCAK256 SWAP5 PUSH1 0x40 MLOAD SWAP4 DUP5 SWAP4 DUP5 MSTORE CALLER PUSH1 0x20 DUP6 ADD MSTORE PUSH1 0x40 DUP5 ADD MSTORE PUSH1 0x80 PUSH1 0x60 DUP5 ADD MSTORE PUSH1 0x80 DUP4 ADD SWAP1 PUSH2 0xA8A JUMP JUMPDEST SUB SWAP1 LOG2 PUSH1 0x1 DUP2 ADD DUP1 SWAP2 GT PUSH2 0x3E1 JUMPI PUSH1 0x1 SSTORE STOP JUMPDEST CALLVALUE PUSH2 0x14F JUMPI PUSH1 0x40 CALLDATASIZE PUSH1 0x3 NOT ADD SLT PUSH2 0x14F JUMPI PUSH2 0x89B PUSH2 0xA0B JUMP JUMPDEST PUSH1 0x24 CALLDATALOAD PUSH8 0xFFFFFFFFFFFFFFFF DUP2 GT PUSH2 0x14F JUMPI CALLDATASIZE PUSH1 0x23 DUP3 ADD SLT ISZERO PUSH2 0x14F JUMPI PUSH2 0x8D4 PUSH1 0x1 PUSH1 0x1 PUSH1 0xA0 SHL SUB SWAP2 CALLDATASIZE SWAP1 PUSH1 0x24 DUP2 PUSH1 0x4 ADD CALLDATALOAD SWAP2 ADD PUSH2 0xA43 JUMP JUMPDEST SWAP2 PUSH2 0x8DD PUSH2 0xB05 JUMP JUMPDEST AND PUSH1 0x0 MSTORE PUSH1 0x2 PUSH1 0x20 MSTORE PUSH1 0x40 PUSH1 0x0 KECCAK256 DUP2 MLOAD PUSH8 0xFFFFFFFFFFFFFFFF DUP2 GT PUSH2 0x9F5 JUMPI PUSH2 0x906 DUP3 SLOAD PUSH2 0xACB JUMP JUMPDEST PUSH1 0x1F DUP2 GT PUSH2 0x9AD JUMPI JUMPDEST POP PUSH1 0x20 SWAP3 PUSH1 0x1F DUP3 GT PUSH1 0x1 EQ PUSH2 0x94D JUMPI SWAP3 DUP2 SWAP3 SWAP4 PUSH1 0x0 SWAP3 PUSH2 0x942 JUMPI JUMPDEST POP POP PUSH1 0x0 NOT PUSH1 0x3 DUP4 SWAP1 SHL SHR NOT AND PUSH1 0x1 SWAP2 SWAP1 SWAP2 SHL OR SWAP1 SSTORE STOP JUMPDEST ADD MLOAD SWAP1 POP DUP4 DUP1 PUSH2 0x92A JUMP JUMPDEST PUSH1 0x1F NOT DUP3 AND SWAP4 DUP4 PUSH1 0x0 MSTORE DUP1 PUSH1 0x0 KECCAK256 SWAP2 PUSH1 0x0 JUMPDEST DUP7 DUP2 LT PUSH2 0x995 JUMPI POP DUP4 PUSH1 0x1 SWAP6 SWAP7 LT PUSH2 0x97C JUMPI JUMPDEST POP POP POP DUP2 SHL ADD SWAP1 SSTORE STOP JUMPDEST ADD MLOAD PUSH1 0x0 NOT PUSH1 0xF8 DUP5 PUSH1 0x3 SHL AND SHR NOT AND SWAP1 SSTORE DUP4 DUP1 DUP1 PUSH2 0x972 JUMP JUMPDEST SWAP2 SWAP3 PUSH1 0x20 PUSH1 0x1 DUP2 SWAP3 DUP7 DUP6 ADD MLOAD DUP2 SSTORE ADD SWAP5 ADD SWAP3 ADD PUSH2 0x95F JUMP JUMPDEST DUP3 PUSH1 0x0 MSTORE PUSH1 0x20 PUSH1 0x0 KECCAK256 PUSH1 0x1F DUP4 ADD PUSH1 0x5 SHR DUP2 ADD SWAP2 PUSH1 0x20 DUP5 LT PUSH2 0x9EB JUMPI JUMPDEST PUSH1 0x1F ADD PUSH1 0x5 SHR ADD SWAP1 JUMPDEST DUP2 DUP2 LT PUSH2 0x9DF JUMPI POP PUSH2 0x90F JUMP JUMPDEST PUSH1 0x0 DUP2 SSTORE PUSH1 0x1 ADD PUSH2 0x9D2 JUMP JUMPDEST SWAP1 SWAP2 POP DUP2 SWAP1 PUSH2 0x9C9 JUMP JUMPDEST PUSH4 0x4E487B71 PUSH1 0xE0 SHL PUSH1 0x0 MSTORE PUSH1 0x41 PUSH1 0x4 MSTORE PUSH1 0x24 PUSH1 0x0 REVERT JUMPDEST PUSH1 0x4 CALLDATALOAD SWAP1 PUSH1 0x1 PUSH1 0x1 PUSH1 0xA0 SHL SUB DUP3 AND DUP3 SUB PUSH2 0x14F JUMPI JUMP JUMPDEST SWAP1 PUSH1 0x1F DUP1 NOT SWAP2 ADD AND DUP2 ADD SWAP1 DUP2 LT PUSH8 0xFFFFFFFFFFFFFFFF DUP3 GT OR PUSH2 0x9F5 JUMPI PUSH1 0x40 MSTORE JUMP JUMPDEST SWAP3 SWAP2 SWAP3 PUSH8 0xFFFFFFFFFFFFFFFF DUP3 GT PUSH2 0x9F5 JUMPI PUSH1 0x40 MLOAD SWAP2 PUSH2 0xA6D PUSH1 0x1F DUP3 ADD PUSH1 0x1F NOT AND PUSH1 0x20 ADD DUP5 PUSH2 0xA21 JUMP JUMPDEST DUP3 SWAP5 DUP2 DUP5 MSTORE DUP2 DUP4 ADD GT PUSH2 0x14F JUMPI DUP3 DUP2 PUSH1 0x20 SWAP4 DUP5 PUSH1 0x0 SWAP7 ADD CALLDATACOPY ADD ADD MSTORE JUMP JUMPDEST SWAP2 SWAP1 DUP3 MLOAD SWAP3 DUP4 DUP3 MSTORE PUSH1 0x0 JUMPDEST DUP5 DUP2 LT PUSH2 0xAB6 JUMPI POP POP DUP3 PUSH1 0x0 PUSH1 0x20 DUP1 SWAP5 SWAP6 DUP5 ADD ADD MSTORE PUSH1 0x1F DUP1 NOT SWAP2 ADD AND ADD ADD SWAP1 JUMP JUMPDEST DUP1 PUSH1 0x20 DUP1 SWAP3 DUP5 ADD ADD MLOAD DUP3 DUP3 DUP7 ADD ADD MSTORE ADD PUSH2 0xA95 JUMP JUMPDEST SWAP1 PUSH1 0x1 DUP3 DUP2 SHR SWAP3 AND DUP1 ISZERO PUSH2 0xAFB JUMPI JUMPDEST PUSH1 0x20 DUP4 LT EQ PUSH2 0xAE5 JUMPI JUMP JUMPDEST PUSH4 0x4E487B71 PUSH1 0xE0 SHL PUSH1 0x0 MSTORE PUSH1 0x22 PUSH1 0x4 MSTORE PUSH1 0x24 PUSH1 0x0 REVERT JUMPDEST SWAP2 PUSH1 0x7F AND SWAP2 PUSH2 0xADA JUMP JUMPDEST PUSH1 0x1 PUSH1 0x1 PUSH1 0xA0 SHL SUB PUSH1 0x0 SLOAD AND CALLER SUB PUSH2 0xB19 JUMPI JUMP JUMPDEST PUSH32 0x118CDAA700000000000000000000000000000000000000000000000000000000 PUSH1 0x0 MSTORE CALLER PUSH1 0x4 MSTORE PUSH1 0x24 PUSH1 0x0 REVERT INVALID LOG2 PUSH5 0x6970667358 0x22 SLT KECCAK256 SWAP3 CODESIZE 0x24 MULMOD CALLER 0xE5 0xE8 DELEGATECALL PUSH0 LOG1 MOD SAR GASLIMIT PUSH3 0x60CA6A MULMOD 0x21 0xC0 0xBA 0xBB 0xC9 DUP9 0xC2 DUP7 0x24 PUSH2 0x2C8B DUP16 LOG2 PUSH5 0x736F6C6343 STOP ADDMOD SHR STOP CALLER "
        },
        "methodIdentifiers": {
          "DENOMINATOR()": "918f8674",
          "ETH()": "8322fff2",
          "ETH_DECIMALS()": "92cd1ff2",
          "FEES()": "8b7b23ee",
          "getCoinType(address)": "b37e4e35",
          "lockAndMint(address,uint256,bytes32)": "67b9af1f",
          "lockAndMintETH(bytes32)": "86a66c3c",
          "owner()": "8da5cb5b",
          "renounceOwnership()": "715018a6",
          "sendMessage(uint64,bytes32,bytes)": "5bd33bba",
          "setCoinType(address,string)": "4de4eafc",
          "transferOwnership(address)": "f2fde38b"
        }
      }
    }
  }
}