{
  "_format": "hh-sol-artifact-1",
  "contractName": "MoveCallBridge",
  "sourceName": "contracts/MoveCallBridge.sol",
  "abi": [
    {
      "inputs": [],
      "stateMutability": "nonpayable",
      "type": "constructor"
    },
    {
      "inputs": [
        {
          "internalType": "address",
          "name": "owner",
          "type": "address"
        }
      ],
      "name": "OwnableInvalidOwner",
      "type": "error"
    },
    {
      "inputs": [
        {
          "internalType": "address",
          "name": "account",
          "type": "address"
        }
      ],
      "name": "OwnableUnauthorizedAccount",
      "type": "error"
    },
    {
      "anonymous": false,
      "inputs": [
        {
          "indexed": true,
          "internalType": "bytes32",
          "name": "uid",
          "type": "bytes32"
        },
        {
          "indexed": false,
          "internalType": "uint64",
          "name": "toChain",
          "type": "uint64"
        },
        {
          "indexed": false,
          "internalType": "address",
          "name": "from",
          "type": "address"
        },
        {
          "indexed": false,
          "internalType": "bytes32",
          "name": "to",
          "type": "bytes32"
        },
        {
          "indexed": false,
          "internalType": "bytes",
          "name": "data",
          "type": "bytes"
        }
      ],
      "name": "MessageSent",
      "type": "event"
    },
    {
      "anonymous": false,
      "inputs": [
        {
          "indexed": true,
          "internalType": "address",
          "name": "previousOwner",
          "type": "address"
        },
        {
          "indexed": true,
          "internalType": "address",
          "name": "newOwner",
          "type": "address"
        }
      ],
      "name": "OwnershipTransferred",
      "type": "event"
    },
    {
      "anonymous": false,
      "inputs": [
        {
          "indexed": true,
          "internalType": "bytes32",
          "name": "uid",
          "type": "bytes32"
        },
        {
          "indexed": false,
          "internalType": "string",
          "name": "coinType",
          "type": "string"
        },
        {
          "indexed": false,
          "internalType": "uint256",
          "name": "decimals",
          "type": "uint256"
        },
        {
          "indexed": false,
          "internalType": "uint256",
          "name": "amount",
          "type": "uint256"
        },
        {
          "indexed": false,
          "internalType": "bytes32",
          "name": "receiver",
          "type": "bytes32"
        }
      ],
      "name": "TokenLocked",
      "type": "event"
    },
    {
      "inputs": [],
      "name": "DENOMINATOR",
      "outputs": [
        {
          "internalType": "uint256",
          "name": "",
          "type": "uint256"
        }
      ],
      "stateMutability": "view",
      "type": "function"
    },
    {
      "inputs": [],
      "name": "ETH",
      "outputs": [
        {
          "internalType": "address",
          "name": "",
          "type": "address"
        }
      ],
      "stateMutability": "view",
      "type": "function"
    },
    {
      "inputs": [],
      "name": "ETH_DECIMALS",
      "outputs": [
        {
          "internalType": "uint8",
          "name": "",
          "type": "uint8"
        }
      ],
      "stateMutability": "view",
      "type": "function"
    },
    {
      "inputs": [],
      "name": "FEES",
      "outputs": [
        {
          "internalType": "uint256",
          "name": "",
          "type": "uint256"
        }
      ],
      "stateMutability": "view",
      "type": "function"
    },
    {
      "inputs": [
        {
          "internalType": "address",
          "name": "token",
          "type": "address"
        }
      ],
      "name": "getCoinType",
      "outputs": [
        {
          "internalType": "string",
          "name": "",
          "type": "string"
        }
      ],
      "stateMutability": "view",
      "type": "function"
    },
    {
      "inputs": [
        {
          "internalType": "address",
          "name": "token",
          "type": "address"
        },
        {
          "internalType": "uint256",
          "name": "amount",
          "type": "uint256"
        },
        {
          "internalType": "bytes32",
          "name": "receiver",
          "type": "bytes32"
        }
      ],
      "name": "lockAndMint",
      "outputs": [],
      "stateMutability": "nonpayable",
      "type": "function"
    },
    {
      "inputs": [
        {
          "internalType": "bytes32",
          "name": "receiver",
          "type": "bytes32"
        }
      ],
      "name": "lockAndMintETH",
      "outputs": [],
      "stateMutability": "payable",
      "type": "function"
    },
    {
      "inputs": [],
      "name": "owner",
      "outputs": [
        {
          "internalType": "address",
          "name": "",
          "type": "address"
        }
      ],
      "stateMutability": "view",
      "type": "function"
    },
    {
      "inputs": [],
      "name": "renounceOwnership",
      "outputs": [],
      "stateMutability": "nonpayable",
      "type": "function"
    },
    {
      "inputs": [
        {
          "internalType": "uint64",
          "name": "toChain",
          "type": "uint64"
        },
        {
          "internalType": "bytes32",
          "name": "to",
          "type": "bytes32"
        },
        {
          "internalType": "bytes",
          "name": "data",
          "type": "bytes"
        }
      ],
      "name": "sendMessage",
      "outputs": [],
      "stateMutability": "payable",
      "type": "function"
    },
    {
      "inputs": [
        {
          "internalType": "address",
          "name": "token",
          "type": "address"
        },
        {
          "internalType": "string",
          "name": "coinType",
          "type": "string"
        }
      ],
      "name": "setCoinType",
      "outputs": [],
      "stateMutability": "nonpayable",
      "type": "function"
    },
    {
      "inputs": [
        {
          "internalType": "address",
          "name": "newOwner",
          "type": "address"
        }
      ],
      "name": "transferOwnership",
      "outputs": [],
      "stateMutability": "nonpayable",
      "type": "function"
    }
  ],
  "bytecode": "0x608080604052346075573315605f5760008054336001600160a01b0319821681178355916001600160a01b03909116907f8be0079c531659141344cd1fd0a4f28419497f9722a3daafe3b4186f6b6457e09080a3610b7d908161007b8239f35b631e4fbdf760e01b600052600060045260246000fd5b600080fdfe6080604052600436101561001257600080fd5b60003560e01c80634de4eafc146108825780635bd33bba146107a357806367b9af1f146104e2578063715018a61461047c5780638322fff21461046057806386a66c3c146102bc5780638b7b23ee1461029f5780638da5cb5b14610278578063918f86741461025a57806392cd1ff21461023e578063b37e4e35146101545763f2fde38b146100a057600080fd5b3461014f57602036600319011261014f576001600160a01b036100c1610a0b565b6100c9610b05565b168015610120576001600160a01b036000548273ffffffffffffffffffffffffffffffffffffffff19821617600055167f8be0079c531659141344cd1fd0a4f28419497f9722a3daafe3b4186f6b6457e0600080a3005b7f1e4fbdf700000000000000000000000000000000000000000000000000000000600052600060045260246000fd5b600080fd5b3461014f57602036600319011261014f576001600160a01b03610175610a0b565b16600052600260205260406000206040519060009080549061019682610acb565b808552916001811690811561021757506001146101d6575b6101d2846101be81860382610a21565b604051918291602083526020830190610a8a565b0390f35b600090815260208120939250905b8082106101fd575090915081016020016101be826101ae565b9192600181602092548385880101520191019092916101e4565b60ff191660208087019190915292151560051b850190920192506101be91508390506101ae565b3461014f57600036600319011261014f57602060405160128152f35b3461014f57600036600319011261014f576020604051620f42408152f35b3461014f57600036600319011261014f5760206001600160a01b0360005416604051908152f35b3461014f57600036600319011261014f5760206040516127108152f35b602036600319011261014f57600435600080526002602052604060002090604051918260008254926102ed84610acb565b808452936001811690811561043e57506001146103f7575b5061031292500383610a21565b60015491604051602081019084825260a0604082015261035a8161033960c0820186610a8a565b600060608301523460808301528660a083015203601f198101835282610a21565b51902091612710340234810461271014341517156103e157620f424090043403913483116103e1577fe80829958c6bfcf6975b892d75fe361e37dac7a1013e1bcb5bc558498806da8c926103bc92604051938493608085526080850190610a8a565b9160126020850152604084015260608301520390a2600181018091116103e157600155005b634e487b7160e01b600052601160045260246000fd5b90506000929192526020600020906000915b8183106104225750509060206103129282010185610305565b6020919350806001915483858901015201910190918492610409565b90506020925061031294915060ff191682840152151560051b82010185610305565b3461014f57600036600319011261014f57602060405160008152f35b3461014f57600036600319011261014f57610495610b05565b60006001600160a01b03815473ffffffffffffffffffffffffffffffffffffffff1981168355167f8be0079c531659141344cd1fd0a4f28419497f9722a3daafe3b4186f6b6457e08280a3005b3461014f57606036600319011261014f576104fb610a0b565b6024356001600160a01b036044359216916040517f23b872dd0000000000000000000000000000000000000000000000000000000081523360048201523060248201528260448201526020816064816000885af1801561075f5761076b575b50604051917f313ce567000000000000000000000000000000000000000000000000000000008352602083600481875afa92831561075f57600093610718575b508360005260026020526040600020604051908160008254926105bc84610acb565b80845293600181169081156106f657506001146106af575b506105e192500382610a21565b6001549460405161062881602081019389855260a0604083015261060860c0830187610a8a565b9060608301528660808301528760a083015203601f198101835282610a21565b51902093612710830283810461271014841517156103e157620f4240900483039283116103e1577fe80829958c6bfcf6975b892d75fe361e37dac7a1013e1bcb5bc558498806da8c9361068b9360ff604051958695608087526080870190610a8a565b93166020850152604084015260608301520390a2600181018091116103e157600155005b90506000929192526020600020906000915b8183106106da5750509060206105e192820101886105d4565b60209193508060019154838588010152019101909183926106c1565b9050602092506105e194915060ff191682840152151560051b820101886105d4565b6020939193813d602011610757575b8161073460209383610a21565b8101031261075357519060ff821682036107505750918461059a565b80fd5b5080fd5b3d9150610727565b6040513d6000823e3d90fd5b6020813d60201161079b575b8161078460209383610a21565b8101031261014f5751801515811461055a57600080fd5b3d9150610777565b606036600319011261014f5760043567ffffffffffffffff811680910361014f5760243560443567ffffffffffffffff811161014f573660238201121561014f576108197f6515a39e714c4ba5f137d79f71a7ecba823c789a6de7d6905640db2e5fc1e9f2913690602481600401359101610a43565b916001549361086f604051602081019087825283604082015284606082015260608152610847608082610a21565b5190209460405193849384523360208501526040840152608060608401526080830190610a8a565b0390a2600181018091116103e157600155005b3461014f57604036600319011261014f5761089b610a0b565b60243567ffffffffffffffff811161014f573660238201121561014f576108d46001600160a01b03913690602481600401359101610a43565b916108dd610b05565b1660005260026020526040600020815167ffffffffffffffff81116109f5576109068254610acb565b601f81116109ad575b50602092601f821160011461094d5792819293600092610942575b5050600019600383901b1c191660019190911b179055005b01519050838061092a565b601f1982169383600052806000209160005b868110610995575083600195961061097c575b505050811b019055005b015160001960f88460031b161c19169055838080610972565b9192602060018192868501518155019401920161095f565b826000526020600020601f830160051c810191602084106109eb575b601f0160051c01905b8181106109df575061090f565b600081556001016109d2565b90915081906109c9565b634e487b7160e01b600052604160045260246000fd5b600435906001600160a01b038216820361014f57565b90601f8019910116810190811067ffffffffffffffff8211176109f557604052565b92919267ffffffffffffffff82116109f55760405191610a6d601f8201601f191660200184610a21565b82948184528183011161014f578281602093846000960137010152565b919082519283825260005b848110610ab6575050826000602080949584010152601f8019910116010190565b80602080928401015182828601015201610a95565b90600182811c92168015610afb575b6020831014610ae557565b634e487b7160e01b600052602260045260246000fd5b91607f1691610ada565b6001600160a01b03600054163303610b1957565b7f118cdaa7000000000000000000000000000000000000000000000000000000006000523360045260246000fdfea26469706673582212209238240933e5e8f45fa1061d456260ca6a0921c0babbc988c28624612c8b8fa264736f6c634300081c0033",
  "linkReferences": {},
  "deployedLinkReferences": {}
}